:100000005FC0E6C178C080C376C075C074C073C0DD
:100010004EC371C070C06FC06EC06DC06CC00902AD
:100020002200010100A00A090400000103000000F1
:100030000921010100012234000705810308006441
:100040001201100100000008C016DC0500010102C9
:10005000000116035500530042006500780061005E
:100060006D0070006C006500200363006F00640089
:10007000650061006E0064006C0069006600650048
:100080002E0063006F006D000403090405010902DE
:10009000A1010901A1000509190129031500250184
:1000A00095037501810295017505810305010930EC
:1000B000093109381581257F750895038106C0C06F
:1000C00011241FBECFE5D2E0DEBFCDBF10E0A0E619
:1000D000B0E0EEE4F9E002C005900D92AA3DB10750
:1000E000D9F721E0AAEDB0E001C01D92A831B20716
:1000F000E1F729D42AC484CFCF93C62F2091EC00F6
:1001000024FF07C03091ED0028E823272093ED005D
:1001100003C02AE52093EC002C2FFC01AEEEB0E0EA
:1001200081918D9321501216DCF36C2F8EEE90E0AE
:1001300038D1CC5FC093EC00CF910895CF93DF937B
:100140008091FE00835087FDA8C09091FA009D32F7
:1001500009F0A1C0883009F09EC08091FB00CCE07E
:10016000D0E0C81BD109CE5FDE4F83EC8093E10065
:100170008AE5809361001092F9008881807619F0F9
:10018000CE0176D37FC09A811092EA0089818111D5
:1001900006C01092EB002AEE30E082E06FC085309E
:1001A00019F49093FF0067C0863009F04EC08B8130
:1001B000813041F480E490E09093FD008093FC0056
:1001C00082E13FC0823041F48EE190E09093FD00E7
:1001D0008093FC0082E235C08330F1F4911108C0B5
:1001E00088E890E09093FD008093FC0084E029C0B3
:1001F000913041F488E690E09093FD008093FC00FC
:1002000080E21FC09230E1F482E590E09093FD001F
:100210008093FC0086E115C0813241F480E390E0D8
:100220009093FD008093FC0089E00BC0823241F482
:100230008CE890E09093FD008093FC0084E301C083
:1002400080E090E49093F9001DC0883069F0893017
:1002500019F4909301010FC08A3049F08B3059F4A2
:100260008BE48093ED0007C021E031E002C02AEE6C
:1002700030E081E003C02AEE30E080E03093FD0002
:100280002093FC009F81911104C09E81981708F46F
:10029000892F809360001092FE008091610084FF9E
:1002A00046C0809160008F3F09F441C0C82F89305B
:1002B00008F0C8E08C1B809360009091E10088E812
:1002C00089278093E100CC2331F14091FC005091CB
:1002D000FD008091F90086FF0AC0A2EEB0E0FA01AD
:1002E0009C2F84918D9331969150D9F708C0DA01F3
:1002F000E2EEF0E09C2F8D9181939150E1F72FEF8A
:100300002C0F30E02F5F3F4FCA01820F931F909355
:10031000FD008093FC006C2F82EE90E042D0CC5F19
:10032000CC3019F08FEF80936000C093610084E1BE
:1003300096B3987131F48150D9F71092FF00109262
:10034000F800C1E08111C0E09091DA00C91721F0F6
:100350008111AFD2C093DA00DF91CF91089585B7B4
:10036000826085BF8BB780648BBFECEEF0E08BE4DE
:1003700081838AE580830895A82FB92F80E090E0DB
:1003800041E050EA609530E009C02D9182279795B1
:10039000879510F084279527305EC8F36F5FA8F328
:1003A0000895EADF8D939D930895A6E08827992705
:1003B000AA9569F00197E1F3B499FCCFB49BFECF05
:1003C00081E09927A6B3019611F0A871D9F7089595
:1003D000CF93CFB7CF93C395B49BE9F7B49B0BC032
:1003E000B49B09C0B49B07C0B49B05C0B49B03C0B9
:1003F000B49B01C0D5C00F92DF93C091FB00DD27F5
:10040000CE5FDE4F012EB49B03C0DF910F90E6CF8D
:100410002F930F931F934F932FEF4F6F06B304FB50
:1004200020F95F933F9350E03BE065C016B301268F
:10043000502954FDC89556B3012704FB25F92F73A5
:1004400006B3B1F05027102714FB26F906B222306C
:10045000F0F000C016B3012704FB27F9012650294C
:1004600006B22430E8F54F77206816B30000F6CFC7
:1004700050274F7D206206B2102F000000C006B347
:1004800000265029102714FB26F906B2E2CF4F7B35
:1004900006B3206400C0DACF01265029187106B2D5
:1004A00069F14E7F2160012F16B328C00026502924
:1004B0004D7F06B22260102F29C0012650294B7FA4
:1004C00006B22460012F2DC016B301265029477FA4
:1004D0002860000006B22EC04F7E06B3206130C0F7
:1004E000422706B3499300265029102706B24FEF42
:1004F00014FB20F9297F16B379F2187159F10126FE
:10050000502906B2012704FB21F9237F06B371F2BB
:10051000002650293150D0F006B2102714FB22F9E2
:10052000277E16B351F201265029012704FB06B29B
:1005300023F92F7C49F2000006B3102714FB24F99D
:100540000026502906B22F7939F270CF10E41ABF75
:10055000002719C03B503195C31BD04010E41ABF8F
:100560000881033C09F10B34F9F02091F80019815E
:10057000110F1213EDCF4A81441F093651F10D328C
:1005800011F0013E29F7009300013F915F914F91D7
:100590001F910F912F91DF910F90CAB7C6FD1BCF0E
:1005A000CF91CFBFCF91189520910001222369F3FD
:1005B0001091FE00112379F534307AF13093FE006A
:1005C0002093FA001091FB003BE0311B3093FB00BD
:1005D00024C00091FE000130F4F40AE54F7049F4A4
:1005E0003091610034FD1AC000936100C1EED0E08B
:1005F00019C03091EC0034FD11C00093EC00CDEE39
:10060000D0E010C0052710E000C021C0052710E091
:10061000C89508BB14C03AE501C032ED032EC0E016
:10062000D0E032E017B31861C49A08B317BB58E1A1
:1006300020E84FEF20FF052708BB279517951C3FA3
:1006400028F700004552B0F720FF0527279508BB83
:1006500017951C3FB8F629913A9561F7077E1091DE
:10066000FF00110F08BBC250D04011F01093F800EA
:1006700010E41ABF006117B3177E402F477E54E085
:100680005A95F1F708BB17BB48BB7FCFE2E9F0E012
:1006900020E030E0419151914817590718F42F5F3D
:1006A0003F4FF8CFF901E259FF4F808108951F9223
:1006B0000F920FB60F9211242F933F934F935F9396
:1006C0006F937F938F939F93AF93BF93EF93FF931A
:1006D00084B195B1909364008093630084B195B127
:1006E000D5DF80936200FF91EF91BF91AF919F9111
:1006F0008F917F916F915F914F913F912F910F90CB
:100700000FBE0F901F9018951F920F920FB60F9269
:1007100011242F933F934F935F936F937F938F9306
:100720009F93AF93BF93EF93FF938091DB00882358
:1007300009F453C0B19A02DD8091EC0084FF4AC0F5
:100740001092DE001092DF001092E00080916300B2
:10075000909164008115924010F081E001C08FEF0C
:10076000E09165002091630030916400F0E0EE0FAD
:10077000FF1FE659FF4F408151812417350780F054
:10078000E09165002091630030916400F0E0EE0F8D
:10079000FF1FEA59FF4F408151814217530778F4F8
:1007A00090916500913031F02091DB0090916200D2
:1007B000291760F08093E0001092650007C08091D7
:1007C0006500811103C081E08093650064E08DEDD8
:1007D00090E092DC1092DB0005C08091DB008F5F1F
:1007E0008093DB00A895FF91EF91BF91AF919F910E
:1007F0008F917F916F915F914F913F912F910F90CA
:100800000FBE0F901F90189584B7877F84BF0FB6D7
:10081000F894A89581B5886181BD11BC0FBE87E0B1
:1008200086B981E087B986B1886E86B980B78B6852
:1008300080BF1FBC81EF8EBD8DBD80E489BFB99A9A
:100840008EDDBC9A8AEF90E0A895E9E3F0E231975B
:10085000F1F700C000000197B9F7BC9878949EE0CA
:1008600088E10FB6F894A89581BD0FBE91BD08959B
:10087000FC01808180768032D1F48181813041F425
:100880008DED90E09093FD008093FC0084E008954E
:10089000823041F48CED90E09093FD008093FC0059
:1008A00081E008958A3019F483818093DC0080E030
:1008B0000895AF92BF92CF92DF92EF92FF920F9383
:1008C0001F93CF93DF93D0E0E12C0FE017E22CECE5
:1008D000C22E26EFD22ED11102C0C0E001C0C0E866
:1008E00087E0A82EB12C90E4F92E80E090E08433CC
:1008F000994014F4CF0D01C0CF19C1BF56DD853327
:1009000029E0920724F09C012453394003C096014A
:10091000281B390B2017310714F4EC2E8901F694AB
:1009200021E0A21AB10819F7DF5FD230A1F6E1BECB
:10093000DF91CF911F910F91FF90EF90DF90CF90BB
:0E094000BF90AF90089560DFFFCFF894FFCF17
:10094E00FF5AFF80000132023C02CE01C4010001B9
:10095E0002030405060708090A0B0C0D0E0F1011F1
:10096E0011100F0E0D0C0B0A0908070605040302E1
:10097E0001000000DA0056017C0191019E01A701E1
:10098E00AE01B401B801BC01BF01C201C501C7016E
:10099E00C901CB01CC0133023402360237023902CF
:1009AE003B023E024102440248024C0252025902EC
:0A09BE0062026F028402AA02FF0326
:00000001FF
